{
  "_format": "hh-sol-artifact-1",
  "contractName": "BookContract",
  "sourceName": "contracts/BookContract.sol",
  "abi": [
    {
      "inputs": [
        {
          "internalType": "string",
          "name": "_bookTitle_",
          "type": "string"
        },
        {
          "internalType": "string",
          "name": "_bookSymbol_",
          "type": "string"
        },
        {
          "internalType": "bool",
          "name": "_published_",
          "type": "bool"
        }
      ],
      "stateMutability": "nonpayable",
      "type": "constructor"
    },
    {
      "anonymous": false,
      "inputs": [
        {
          "indexed": true,
          "internalType": "address",
          "name": "owner",
          "type": "address"
        },
        {
          "indexed": true,
          "internalType": "address",
          "name": "approved",
          "type": "address"
        },
        {
          "indexed": true,
          "internalType": "uint256",
          "name": "tokenId",
          "type": "uint256"
        }
      ],
      "name": "Approval",
      "type": "event"
    },
    {
      "anonymous": false,
      "inputs": [
        {
          "indexed": true,
          "internalType": "address",
          "name": "owner",
          "type": "address"
        },
        {
          "indexed": true,
          "internalType": "address",
          "name": "operator",
          "type": "address"
        },
        {
          "indexed": false,
          "internalType": "bool",
          "name": "approved",
          "type": "bool"
        }
      ],
      "name": "ApprovalForAll",
      "type": "event"
    },
    {
      "anonymous": false,
      "inputs": [
        {
          "indexed": true,
          "internalType": "address",
          "name": "from",
          "type": "address"
        },
        {
          "indexed": true,
          "internalType": "address",
          "name": "to",
          "type": "address"
        },
        {
          "indexed": true,
          "internalType": "uint256",
          "name": "tokenId",
          "type": "uint256"
        }
      ],
      "name": "Transfer",
      "type": "event"
    },
    {
      "anonymous": false,
      "inputs": [
        {
          "indexed": true,
          "internalType": "uint256",
          "name": "tokenID",
          "type": "uint256"
        }
      ],
      "name": "bookTokenCreated",
      "type": "event"
    },
    {
      "inputs": [
        {
          "internalType": "address",
          "name": "to",
          "type": "address"
        },
        {
          "internalType": "uint256",
          "name": "tokenId",
          "type": "uint256"
        }
      ],
      "name": "approve",
      "outputs": [],
      "stateMutability": "nonpayable",
      "type": "function"
    },
    {
      "inputs": [],
      "name": "authorBalance",
      "outputs": [
        {
          "internalType": "uint256",
          "name": "",
          "type": "uint256"
        }
      ],
      "stateMutability": "view",
      "type": "function"
    },
    {
      "inputs": [
        {
          "internalType": "address payable",
          "name": "author",
          "type": "address"
        },
        {
          "internalType": "uint256",
          "name": "_tokenId",
          "type": "uint256"
        }
      ],
      "name": "authorClaim",
      "outputs": [],
      "stateMutability": "payable",
      "type": "function"
    },
    {
      "inputs": [
        {
          "internalType": "address",
          "name": "owner",
          "type": "address"
        }
      ],
      "name": "balanceOf",
      "outputs": [
        {
          "internalType": "uint256",
          "name": "",
          "type": "uint256"
        }
      ],
      "stateMutability": "view",
      "type": "function"
    },
    {
      "inputs": [
        {
          "internalType": "uint256",
          "name": "",
          "type": "uint256"
        }
      ],
      "name": "bookCopies",
      "outputs": [
        {
          "internalType": "uint256",
          "name": "copyNumber",
          "type": "uint256"
        },
        {
          "internalType": "uint256",
          "name": "price",
          "type": "uint256"
        },
        {
          "internalType": "address",
          "name": "tokenHolder",
          "type": "address"
        },
        {
          "internalType": "address",
          "name": "author",
          "type": "address"
        },
        {
          "internalType": "address",
          "name": "publisher",
          "type": "address"
        },
        {
          "internalType": "enum BookContract.SoldStatus",
          "name": "status",
          "type": "uint8"
        }
      ],
      "stateMutability": "view",
      "type": "function"
    },
    {
      "inputs": [
        {
          "internalType": "uint256",
          "name": "",
          "type": "uint256"
        }
      ],
      "name": "bookTokens",
      "outputs": [
        {
          "internalType": "uint256",
          "name": "copyNumber",
          "type": "uint256"
        },
        {
          "internalType": "uint256",
          "name": "price",
          "type": "uint256"
        },
        {
          "internalType": "address",
          "name": "tokenHolder",
          "type": "address"
        },
        {
          "internalType": "address",
          "name": "author",
          "type": "address"
        },
        {
          "internalType": "address",
          "name": "publisher",
          "type": "address"
        },
        {
          "internalType": "enum BookContract.SoldStatus",
          "name": "status",
          "type": "uint8"
        }
      ],
      "stateMutability": "view",
      "type": "function"
    },
    {
      "inputs": [
        {
          "internalType": "uint256",
          "name": "_tokenId",
          "type": "uint256"
        }
      ],
      "name": "buyBook",
      "outputs": [],
      "stateMutability": "payable",
      "type": "function"
    },
    {
      "inputs": [],
      "name": "contractBalance",
      "outputs": [
        {
          "internalType": "uint256",
          "name": "",
          "type": "uint256"
        }
      ],
      "stateMutability": "view",
      "type": "function"
    },
    {
      "inputs": [
        {
          "internalType": "uint256",
          "name": "_price",
          "type": "uint256"
        },
        {
          "internalType": "address",
          "name": "_author",
          "type": "address"
        }
      ],
      "name": "createBookToken",
      "outputs": [],
      "stateMutability": "nonpayable",
      "type": "function"
    },
    {
      "inputs": [
        {
          "internalType": "uint256",
          "name": "tokenId",
          "type": "uint256"
        }
      ],
      "name": "getApproved",
      "outputs": [
        {
          "internalType": "address",
          "name": "",
          "type": "address"
        }
      ],
      "stateMutability": "view",
      "type": "function"
    },
    {
      "inputs": [
        {
          "internalType": "address",
          "name": "owner",
          "type": "address"
        },
        {
          "internalType": "address",
          "name": "operator",
          "type": "address"
        }
      ],
      "name": "isApprovedForAll",
      "outputs": [
        {
          "internalType": "bool",
          "name": "",
          "type": "bool"
        }
      ],
      "stateMutability": "view",
      "type": "function"
    },
    {
      "inputs": [],
      "name": "name",
      "outputs": [
        {
          "internalType": "string",
          "name": "",
          "type": "string"
        }
      ],
      "stateMutability": "view",
      "type": "function"
    },
    {
      "inputs": [
        {
          "internalType": "uint256",
          "name": "tokenId",
          "type": "uint256"
        }
      ],
      "name": "ownerOf",
      "outputs": [
        {
          "internalType": "address",
          "name": "",
          "type": "address"
        }
      ],
      "stateMutability": "view",
      "type": "function"
    },
    {
      "inputs": [],
      "name": "publisherBalance",
      "outputs": [
        {
          "internalType": "uint256",
          "name": "",
          "type": "uint256"
        }
      ],
      "stateMutability": "view",
      "type": "function"
    },
    {
      "inputs": [
        {
          "internalType": "address payable",
          "name": "publisher",
          "type": "address"
        },
        {
          "internalType": "uint256",
          "name": "_tokenId",
          "type": "uint256"
        }
      ],
      "name": "publisherClaim",
      "outputs": [],
      "stateMutability": "payable",
      "type": "function"
    },
    {
      "inputs": [
        {
          "internalType": "address",
          "name": "from",
          "type": "address"
        },
        {
          "internalType": "address",
          "name": "to",
          "type": "address"
        },
        {
          "internalType": "uint256",
          "name": "tokenId",
          "type": "uint256"
        }
      ],
      "name": "safeTransferFrom",
      "outputs": [],
      "stateMutability": "nonpayable",
      "type": "function"
    },
    {
      "inputs": [
        {
          "internalType": "address",
          "name": "from",
          "type": "address"
        },
        {
          "internalType": "address",
          "name": "to",
          "type": "address"
        },
        {
          "internalType": "uint256",
          "name": "tokenId",
          "type": "uint256"
        },
        {
          "internalType": "bytes",
          "name": "_data",
          "type": "bytes"
        }
      ],
      "name": "safeTransferFrom",
      "outputs": [],
      "stateMutability": "nonpayable",
      "type": "function"
    },
    {
      "inputs": [
        {
          "internalType": "address",
          "name": "operator",
          "type": "address"
        },
        {
          "internalType": "bool",
          "name": "approved",
          "type": "bool"
        }
      ],
      "name": "setApprovalForAll",
      "outputs": [],
      "stateMutability": "nonpayable",
      "type": "function"
    },
    {
      "inputs": [
        {
          "internalType": "bool",
          "name": "publishedState",
          "type": "bool"
        },
        {
          "internalType": "uint256",
          "name": "_tokenId",
          "type": "uint256"
        }
      ],
      "name": "setPublishedState",
      "outputs": [],
      "stateMutability": "nonpayable",
      "type": "function"
    },
    {
      "inputs": [],
      "name": "soldCount",
      "outputs": [
        {
          "internalType": "uint256",
          "name": "",
          "type": "uint256"
        }
      ],
      "stateMutability": "view",
      "type": "function"
    },
    {
      "inputs": [
        {
          "internalType": "bytes4",
          "name": "interfaceId",
          "type": "bytes4"
        }
      ],
      "name": "supportsInterface",
      "outputs": [
        {
          "internalType": "bool",
          "name": "",
          "type": "bool"
        }
      ],
      "stateMutability": "view",
      "type": "function"
    },
    {
      "inputs": [],
      "name": "symbol",
      "outputs": [
        {
          "internalType": "string",
          "name": "",
          "type": "string"
        }
      ],
      "stateMutability": "view",
      "type": "function"
    },
    {
      "inputs": [
        {
          "internalType": "uint256",
          "name": "tokenId",
          "type": "uint256"
        }
      ],
      "name": "tokenURI",
      "outputs": [
        {
          "internalType": "string",
          "name": "",
          "type": "string"
        }
      ],
      "stateMutability": "view",
      "type": "function"
    },
    {
      "inputs": [],
      "name": "totalCount",
      "outputs": [
        {
          "internalType": "uint256",
          "name": "",
          "type": "uint256"
        }
      ],
      "stateMutability": "view",
      "type": "function"
    },
    {
      "inputs": [
        {
          "internalType": "address",
          "name": "buyer",
          "type": "address"
        },
        {
          "internalType": "uint256",
          "name": "_tokenId",
          "type": "uint256"
        }
      ],
      "name": "transferBookToken",
      "outputs": [],
      "stateMutability": "nonpayable",
      "type": "function"
    },
    {
      "inputs": [
        {
          "internalType": "address",
          "name": "from",
          "type": "address"
        },
        {
          "internalType": "address",
          "name": "to",
          "type": "address"
        },
        {
          "internalType": "uint256",
          "name": "tokenId",
          "type": "uint256"
        }
      ],
      "name": "transferFrom",
      "outputs": [],
      "stateMutability": "nonpayable",
      "type": "function"
    },
    {
      "inputs": [],
      "name": "withdrawContractBalance",
      "outputs": [],
      "stateMutability": "payable",
      "type": "function"
    }
  ],
  "bytecode": "0x60806040523480156200001157600080fd5b5060405162003e4738038062003e4783398181016040528101906200003791906200020a565b8282816000908051906020019062000051929190620000d1565b5080600190805190602001906200006a929190620000d1565b50505080600860006101000a81548160ff02191690831515021790555033600860016101000a81548173ffffffffffffffffffffffffffffffffffffffff021916908373ffffffffffffffffffffffffffffffffffffffff160217905550505050620003e9565b828054620000df906200033b565b90600052602060002090601f0160209004810192826200010357600085556200014f565b82601f106200011e57805160ff19168380011785556200014f565b828001600101855582156200014f579182015b828111156200014e57825182559160200191906001019062000131565b5b5090506200015e919062000162565b5090565b5b808211156200017d57600081600090555060010162000163565b5090565b6000620001986200019284620002c6565b62000292565b905082815260208101848484011115620001b157600080fd5b620001be84828562000305565b509392505050565b600081519050620001d781620003cf565b92915050565b600082601f830112620001ef57600080fd5b81516200020184826020860162000181565b91505092915050565b6000806000606084860312156200022057600080fd5b600084015167ffffffffffffffff8111156200023b57600080fd5b6200024986828701620001dd565b935050602084015167ffffffffffffffff8111156200026757600080fd5b6200027586828701620001dd565b92505060406200028886828701620001c6565b9150509250925092565b6000604051905081810181811067ffffffffffffffff82111715620002bc57620002bb620003a0565b5b8060405250919050565b600067ffffffffffffffff821115620002e457620002e3620003a0565b5b601f19601f8301169050602081019050919050565b60008115159050919050565b60005b838110156200032557808201518184015260208101905062000308565b8381111562000335576000848401525b50505050565b600060028204905060018216806200035457607f821691505b602082108114156200036b576200036a62000371565b5b50919050565b7f4e487b7100000000000000000000000000000000000000000000000000000000600052602260045260246000fd5b7f4e487b7100000000000000000000000000000000000000000000000000000000600052604160045260246000fd5b620003da81620002f9565b8114620003e657600080fd5b50565b613a4e80620003f96000396000f3fe60806040526004361061019c5760003560e01c8063625e7a5a116100ec57806395d89b411161008a578063b88d4fde11610064578063b88d4fde146105b9578063bfab3db9146105e2578063c87b56dd146105ec578063e985e9c5146106295761019c565b806395d89b4114610523578063a22cb4651461054e578063a644c199146105775761019c565b806370a08231116100c657806370a08231146104505780637ebdc6e01461048d57806383b65cb4146104b65780638b7afe2e146104f85761019c565b8063625e7a5a146103ce5780636352211e146103f75780636ee26566146104345761019c565b806323b872dd1161015957806339f9c82c1161013357806339f9c82c1461033357806342842e0e1461035e578063596a1e20146103875780635ad7dd7f146103b25761019c565b806323b872dd146102b657806334eafb11146102df5780633880306b1461030a5761019c565b806301ffc9a7146101a157806306fdde03146101de578063081812fc14610209578063095ea7b3146102465780630d4831e31461026f57806311864fed1461028b575b600080fd5b3480156101ad57600080fd5b506101c860048036038101906101c391906129a7565b610666565b6040516101d5919061322a565b60405180910390f35b3480156101ea57600080fd5b506101f3610748565b6040516102009190613245565b60405180910390f35b34801561021557600080fd5b50610230600480360381019061022b91906129f9565b6107da565b60405161023d91906131c3565b60405180910390f35b34801561025257600080fd5b5061026d6004803603810190610268919061292f565b61085f565b005b610289600480360381019061028491906127b1565b610977565b005b34801561029757600080fd5b506102a0610a76565b6040516102ad91906134c7565b60405180910390f35b3480156102c257600080fd5b506102dd60048036038101906102d89190612829565b610a7c565b005b3480156102eb57600080fd5b506102f4610adc565b60405161030191906134c7565b60405180910390f35b34801561031657600080fd5b50610331600480360381019061032c9190612a22565b610ae2565b005b34801561033f57600080fd5b50610348610f14565b60405161035591906134c7565b60405180910390f35b34801561036a57600080fd5b5061038560048036038101906103809190612829565b610f1a565b005b34801561039357600080fd5b5061039c610f3a565b6040516103a991906134c7565b60405180910390f35b6103cc60048036038101906103c791906127b1565b610f40565b005b3480156103da57600080fd5b506103f560048036038101906103f0919061296b565b61103f565b005b34801561040357600080fd5b5061041e600480360381019061041991906129f9565b61116f565b60405161042b91906131c3565b60405180910390f35b61044e600480360381019061044991906129f9565b611221565b005b34801561045c57600080fd5b5061047760048036038101906104729190612788565b6113fa565b60405161048491906134c7565b60405180910390f35b34801561049957600080fd5b506104b460048036038101906104af919061292f565b6114b2565b005b3480156104c257600080fd5b506104dd60048036038101906104d891906129f9565b6115bb565b6040516104ef969594939291906134e2565b60405180910390f35b34801561050457600080fd5b5061050d611664565b60405161051a91906134c7565b60405180910390f35b34801561052f57600080fd5b5061053861166a565b6040516105459190613245565b60405180910390f35b34801561055a57600080fd5b50610575600480360381019061057091906128f3565b6116fc565b005b34801561058357600080fd5b5061059e600480360381019061059991906129f9565b61187d565b6040516105b0969594939291906134e2565b60405180910390f35b3480156105c557600080fd5b506105e060048036038101906105db9190612878565b611936565b005b6105ea611998565b005b3480156105f857600080fd5b50610613600480360381019061060e91906129f9565b611a80565b6040516106209190613245565b60405180910390f35b34801561063557600080fd5b50610650600480360381019061064b91906127ed565b611b27565b60405161065d919061322a565b60405180910390f35b60007f80ac58cd000000000000000000000000000000000000000000000000000000007bffffffffffffffffffffffffffffffffffffffffffffffffffffffff1916827bffffffffffffffffffffffffffffffffffffffffffffffffffffffff1916148061073157507f5b5e139f000000000000000000000000000000000000000000000000000000007bffffffffffffffffffffffffffffffffffffffffffffffffffffffff1916827bffffffffffffffffffffffffffffffffffffffffffffffffffffffff1916145b80610741575061074082611bbb565b5b9050919050565b606060008054610757906137e9565b80601f0160208091040260200160405190810160405280929190818152602001828054610783906137e9565b80156107d05780601f106107a5576101008083540402835291602001916107d0565b820191906000526020600020905b8154815290600101906020018083116107b357829003601f168201915b5050505050905090565b60006107e582611c25565b610824576040517f08c379a000000000000000000000000000000000000000000000000000000000815260040161081b906133e7565b60405180910390fd5b6004600083815260200190815260200160002060009054906101000a900473ffffffffffffffffffffffffffffffffffffffff169050919050565b600061086a8261116f565b90508073ffffffffffffffffffffffffffffffffffffffff168373ffffffffffffffffffffffffffffffffffffffff1614156108db576040517f08c379a00000000000000000000000000000000000000000000000000000000081526004016108d290613447565b60405180910390fd5b8073ffffffffffffffffffffffffffffffffffffffff166108fa611c91565b73ffffffffffffffffffffffffffffffffffffffff161480610929575061092881610923611c91565b611b27565b5b610968576040517f08c379a000000000000000000000000000000000000000000000000000000000815260040161095f90613367565b60405180910390fd5b6109728383611c99565b505050565b600a600082815260200190815260200160002060030160009054906101000a900473ffffffffffffffffffffffffffffffffffffffff1673ffffffffffffffffffffffffffffffffffffffff168273ffffffffffffffffffffffffffffffffffffffff1614610a1b576040517f08c379a0000000000000000000000000000000000000000000000000000000008152600401610a1290613487565b60405180910390fd5b6000600b5490506000600b819055508273ffffffffffffffffffffffffffffffffffffffff166108fc829081150290604051600060405180830381858888f19350505050158015610a70573d6000803e3d6000fd5b50505050565b600b5481565b610a8d610a87611c91565b82611d52565b610acc576040517f08c379a0000000000000000000000000000000000000000000000000000000008152600401610ac390613467565b60405180910390fd5b610ad7838383611e30565b505050565b60065481565b60011515600860009054906101000a900460ff16151514610b38576040517f08c379a0000000000000000000000000000000000000000000000000000000008152600401610b2f906132a7565b60405180910390fd5b60066000815480929190610b4b9061381b565b919050555060006040518060c0016040528060065481526020018481526020013373ffffffffffffffffffffffffffffffffffffffff1681526020018373ffffffffffffffffffffffffffffffffffffffff1681526020013373ffffffffffffffffffffffffffffffffffffffff16815260200160006001811115610bf9577f4e487b7100000000000000000000000000000000000000000000000000000000600052602160045260246000fd5b81525090506009819080600181540180825580915050600190039060005260206000209060050201600090919091909150600082015181600001556020820151816001015560408201518160020160006101000a81548173ffffffffffffffffffffffffffffffffffffffff021916908373ffffffffffffffffffffffffffffffffffffffff16021790555060608201518160030160006101000a81548173ffffffffffffffffffffffffffffffffffffffff021916908373ffffffffffffffffffffffffffffffffffffffff16021790555060808201518160040160006101000a81548173ffffffffffffffffffffffffffffffffffffffff021916908373ffffffffffffffffffffffffffffffffffffffff16021790555060a08201518160040160146101000a81548160ff02191690836001811115610d64577f4e487b7100000000000000000000000000000000000000000000000000000000600052602160045260246000fd5b0217905550505060006001600980549050610d7f91906136c8565b9050610d8b338261208c565b81600a6000838152602001908152602001600020600082015181600001556020820151816001015560408201518160020160006101000a81548173ffffffffffffffffffffffffffffffffffffffff021916908373ffffffffffffffffffffffffffffffffffffffff16021790555060608201518160030160006101000a81548173ffffffffffffffffffffffffffffffffffffffff021916908373ffffffffffffffffffffffffffffffffffffffff16021790555060808201518160040160006101000a81548173ffffffffffffffffffffffffffffffffffffffff021916908373ffffffffffffffffffffffffffffffffffffffff16021790555060a08201518160040160146101000a81548160ff02191690836001811115610ed9577f4e487b7100000000000000000000000000000000000000000000000000000000600052602160045260246000fd5b0217905550905050807fb731d3c27c98bd8dec0bd451c9cecbbea0497787f3d725cc69d4d6c44a3a728560405160405180910390a250505050565b60075481565b610f3583838360405180602001604052806000815250611936565b505050565b600c5481565b600a600082815260200190815260200160002060040160009054906101000a900473ffffffffffffffffffffffffffffffffffffffff1673ffffffffffffffffffffffffffffffffffffffff168273ffffffffffffffffffffffffffffffffffffffff1614610fe4576040517f08c379a0000000000000000000000000000000000000000000000000000000008152600401610fdb906134a7565b60405180910390fd5b6000600c5490506000600c819055508273ffffffffffffffffffffffffffffffffffffffff166108fc829081150290604051600060405180830381858888f19350505050158015611039573d6000803e3d6000fd5b50505050565b80600a600082815260200190815260200160002060040160009054906101000a900473ffffffffffffffffffffffffffffffffffffffff1673ffffffffffffffffffffffffffffffffffffffff163373ffffffffffffffffffffffffffffffffffffffff1614806111115750600a600082815260200190815260200160002060030160009054906101000a900473ffffffffffffffffffffffffffffffffffffffff1673ffffffffffffffffffffffffffffffffffffffff163373ffffffffffffffffffffffffffffffffffffffff16145b611150576040517f08c379a0000000000000000000000000000000000000000000000000000000008152600401611147906132c7565b60405180910390fd5b82600860006101000a81548160ff021916908315150217905550505050565b6000806002600084815260200190815260200160002060009054906101000a900473ffffffffffffffffffffffffffffffffffffffff169050600073ffffffffffffffffffffffffffffffffffffffff168173ffffffffffffffffffffffffffffffffffffffff161415611218576040517f08c379a000000000000000000000000000000000000000000000000000000000815260040161120f906133a7565b60405180910390fd5b80915050919050565b600a60008281526020019081526020016000206001015434101561124457600080fd5b600073ffffffffffffffffffffffffffffffffffffffff163373ffffffffffffffffffffffffffffffffffffffff16141561127e57600080fd5b6000339050600a60008381526020019081526020016000206001015434111561130a578073ffffffffffffffffffffffffffffffffffffffff166108fc600a600085815260200190815260200160002060010154346112dd91906136c8565b9081150290604051600060405180830381858888f19350505050158015611308573d6000803e3d6000fd5b505b6064600a8060008581526020019081526020016000206001015461132e919061366e565b611338919061363d565b600d600082825461134991906135e7565b9250508190555060646032600a600085815260200190815260200160002060010154611375919061366e565b61137f919061363d565b600b600082825461139091906135e7565b9250508190555060646028600a6000858152602001908152602001600020600101546113bc919061366e565b6113c6919061363d565b600c60008282546113d791906135e7565b92505081905550600760008154809291906113f19061381b565b91905055505050565b60008073ffffffffffffffffffffffffffffffffffffffff168273ffffffffffffffffffffffffffffffffffffffff16141561146b576040517f08c379a000000000000000000000000000000000000000000000000000000000815260040161146290613387565b60405180910390fd5b600360008373ffffffffffffffffffffffffffffffffffffffff1673ffffffffffffffffffffffffffffffffffffffff168152602001908152602001600020549050919050565b600073ffffffffffffffffffffffffffffffffffffffff163373ffffffffffffffffffffffffffffffffffffffff1614156114ec57600080fd5b60003390506114fc818484610a7c565b82600a600084815260200190815260200160002060020160006101000a81548173ffffffffffffffffffffffffffffffffffffffff021916908373ffffffffffffffffffffffffffffffffffffffff1602179055506001600a600084815260200190815260200160002060040160146101000a81548160ff021916908360018111156115b1577f4e487b7100000000000000000000000000000000000000000000000000000000600052602160045260246000fd5b0217905550505050565b600a6020528060005260406000206000915090508060000154908060010154908060020160009054906101000a900473ffffffffffffffffffffffffffffffffffffffff16908060030160009054906101000a900473ffffffffffffffffffffffffffffffffffffffff16908060040160009054906101000a900473ffffffffffffffffffffffffffffffffffffffff16908060040160149054906101000a900460ff16905086565b600d5481565b606060018054611679906137e9565b80601f01602080910402602001604051908101604052809291908181526020018280546116a5906137e9565b80156116f25780601f106116c7576101008083540402835291602001916116f2565b820191906000526020600020905b8154815290600101906020018083116116d557829003601f168201915b5050505050905090565b611704611c91565b73ffffffffffffffffffffffffffffffffffffffff168273ffffffffffffffffffffffffffffffffffffffff161415611772576040517f08c379a000000000000000000000000000000000000000000000000000000000815260040161176990613307565b60405180910390fd5b806005600061177f611c91565b73ffffffffffffffffffffffffffffffffffffffff1673ffffffffffffffffffffffffffffffffffffffff16815260200190815260200160002060008473ffffffffffffffffffffffffffffffffffffffff1673ffffffffffffffffffffffffffffffffffffffff16815260200190815260200160002060006101000a81548160ff0219169083151502179055508173ffffffffffffffffffffffffffffffffffffffff1661182c611c91565b73ffffffffffffffffffffffffffffffffffffffff167f17307eab39ab6107e8899845ad3d59bd9653f200f220920489ca2b5937696c3183604051611871919061322a565b60405180910390a35050565b6009818154811061188d57600080fd5b90600052602060002090600502016000915090508060000154908060010154908060020160009054906101000a900473ffffffffffffffffffffffffffffffffffffffff16908060030160009054906101000a900473ffffffffffffffffffffffffffffffffffffffff16908060040160009054906101000a900473ffffffffffffffffffffffffffffffffffffffff16908060040160149054906101000a900460ff16905086565b611947611941611c91565b83611d52565b611986576040517f08c379a000000000000000000000000000000000000000000000000000000000815260040161197d90613467565b60405180910390fd5b611992848484846120aa565b50505050565b600e60009054906101000a900460ff16156119e8576040517f08c379a00000000000000000000000000000000000000000000000000000000081526004016119df90613327565b60405180910390fd5b6001600e60006101000a81548160ff021916908315150217905550600860019054906101000a900473ffffffffffffffffffffffffffffffffffffffff1673ffffffffffffffffffffffffffffffffffffffff166108fc479081150290604051600060405180830381858888f19350505050611a6357600080fd5b6000600e60006101000a81548160ff021916908315150217905550565b6060611a8b82611c25565b611aca576040517f08c379a0000000000000000000000000000000000000000000000000000000008152600401611ac190613427565b60405180910390fd5b6000611ad4612106565b90506000815111611af45760405180602001604052806000815250611b1f565b80611afe8461211d565b604051602001611b0f92919061319f565b6040516020818303038152906040525b915050919050565b6000600560008473ffffffffffffffffffffffffffffffffffffffff1673ffffffffffffffffffffffffffffffffffffffff16815260200190815260200160002060008373ffffffffffffffffffffffffffffffffffffffff1673ffffffffffffffffffffffffffffffffffffffff16815260200190815260200160002060009054906101000a900460ff16905092915050565b60007f01ffc9a7000000000000000000000000000000000000000000000000000000007bffffffffffffffffffffffffffffffffffffffffffffffffffffffff1916827bffffffffffffffffffffffffffffffffffffffffffffffffffffffff1916149050919050565b60008073ffffffffffffffffffffffffffffffffffffffff166002600084815260200190815260200160002060009054906101000a900473ffffffffffffffffffffffffffffffffffffffff1673ffffffffffffffffffffffffffffffffffffffff1614159050919050565b600033905090565b816004600083815260200190815260200160002060006101000a81548173ffffffffffffffffffffffffffffffffffffffff021916908373ffffffffffffffffffffffffffffffffffffffff160217905550808273ffffffffffffffffffffffffffffffffffffffff16611d0c8361116f565b73ffffffffffffffffffffffffffffffffffffffff167f8c5be1e5ebec7d5bd14f71427d1e84f3dd0314c0f7b2291e5b200ac8c7c3b92560405160405180910390a45050565b6000611d5d82611c25565b611d9c576040517f08c379a0000000000000000000000000000000000000000000000000000000008152600401611d9390613347565b60405180910390fd5b6000611da78361116f565b90508073ffffffffffffffffffffffffffffffffffffffff168473ffffffffffffffffffffffffffffffffffffffff161480611e1657508373ffffffffffffffffffffffffffffffffffffffff16611dfe846107da565b73ffffffffffffffffffffffffffffffffffffffff16145b80611e275750611e268185611b27565b5b91505092915050565b8273ffffffffffffffffffffffffffffffffffffffff16611e508261116f565b73ffffffffffffffffffffffffffffffffffffffff1614611ea6576040517f08c379a0000000000000000000000000000000000000000000000000000000008152600401611e9d90613407565b60405180910390fd5b600073ffffffffffffffffffffffffffffffffffffffff168273ffffffffffffffffffffffffffffffffffffffff161415611f16576040517f08c379a0000000000000000000000000000000000000000000000000000000008152600401611f0d906132e7565b60405180910390fd5b611f218383836122ca565b611f2c600082611c99565b6001600360008573ffffffffffffffffffffffffffffffffffffffff1673ffffffffffffffffffffffffffffffffffffffff1681526020019081526020016000206000828254611f7c91906136c8565b925050819055506001600360008473ffffffffffffffffffffffffffffffffffffffff1673ffffffffffffffffffffffffffffffffffffffff1681526020019081526020016000206000828254611fd391906135e7565b92505081905550816002600083815260200190815260200160002060006101000a81548173ffffffffffffffffffffffffffffffffffffffff021916908373ffffffffffffffffffffffffffffffffffffffff160217905550808273ffffffffffffffffffffffffffffffffffffffff168473ffffffffffffffffffffffffffffffffffffffff167fddf252ad1be2c89b69c2b068fc378daa952ba7f163c4a11628f55a4df523b3ef60405160405180910390a4505050565b6120a68282604051806020016040528060008152506122cf565b5050565b6120b5848484611e30565b6120c18484848461232a565b612100576040517f08c379a00000000000000000000000000000000000000000000000000000000081526004016120f790613267565b60405180910390fd5b50505050565b606060405180602001604052806000815250905090565b60606000821415612165576040518060400160405280600181526020017f300000000000000000000000000000000000000000000000000000000000000081525090506122c5565b600082905060005b600082146121975780806121809061381b565b915050600a82612190919061363d565b915061216d565b60008167ffffffffffffffff8111156121d9577f4e487b7100000000000000000000000000000000000000000000000000000000600052604160045260246000fd5b6040519080825280601f01601f19166020018201604052801561220b5781602001600182028036833780820191505090505b5090505b600085146122be5760018261222491906136c8565b9150600a856122339190613864565b603061223f91906135e7565b60f81b81838151811061227b577f4e487b7100000000000000000000000000000000000000000000000000000000600052603260045260246000fd5b60200101907effffffffffffffffffffffffffffffffffffffffffffffffffffffffffffff1916908160001a905350600a856122b7919061363d565b945061220f565b8093505050505b919050565b505050565b6122d983836124c1565b6122e6600084848461232a565b612325576040517f08c379a000000000000000000000000000000000000000000000000000000000815260040161231c90613267565b60405180910390fd5b505050565b600061234b8473ffffffffffffffffffffffffffffffffffffffff1661268f565b156124b4578373ffffffffffffffffffffffffffffffffffffffff1663150b7a02612374611c91565b8786866040518563ffffffff1660e01b815260040161239694939291906131de565b602060405180830381600087803b1580156123b057600080fd5b505af19250505080156123e157506040513d601f19601f820116820180604052508101906123de91906129d0565b60015b612464573d8060008114612411576040519150601f19603f3d011682016040523d82523d6000602084013e612416565b606091505b5060008151141561245c576040517f08c379a000000000000000000000000000000000000000000000000000000000815260040161245390613267565b60405180910390fd5b805181602001fd5b63150b7a0260e01b7bffffffffffffffffffffffffffffffffffffffffffffffffffffffff1916817bffffffffffffffffffffffffffffffffffffffffffffffffffffffff1916149150506124b9565b600190505b949350505050565b600073ffffffffffffffffffffffffffffffffffffffff168273ffffffffffffffffffffffffffffffffffffffff161415612531576040517f08c379a0000000000000000000000000000000000000000000000000000000008152600401612528906133c7565b60405180910390fd5b61253a81611c25565b1561257a576040517f08c379a000000000000000000000000000000000000000000000000000000000815260040161257190613287565b60405180910390fd5b612586600083836122ca565b6001600360008473ffffffffffffffffffffffffffffffffffffffff1673ffffffffffffffffffffffffffffffffffffffff16815260200190815260200160002060008282546125d691906135e7565b92505081905550816002600083815260200190815260200160002060006101000a81548173ffffffffffffffffffffffffffffffffffffffff021916908373ffffffffffffffffffffffffffffffffffffffff160217905550808273ffffffffffffffffffffffffffffffffffffffff16600073ffffffffffffffffffffffffffffffffffffffff167fddf252ad1be2c89b69c2b068fc378daa952ba7f163c4a11628f55a4df523b3ef60405160405180910390a45050565b600080823b905060008111915050919050565b60006126b56126b084613574565b613543565b9050828152602081018484840111156126cd57600080fd5b6126d88482856137a7565b509392505050565b6000813590506126ef816139a5565b92915050565b600081359050612704816139bc565b92915050565b600081359050612719816139d3565b92915050565b60008135905061272e816139ea565b92915050565b600081519050612743816139ea565b92915050565b600082601f83011261275a57600080fd5b813561276a8482602086016126a2565b91505092915050565b60008135905061278281613a01565b92915050565b60006020828403121561279a57600080fd5b60006127a8848285016126e0565b91505092915050565b600080604083850312156127c457600080fd5b60006127d2858286016126f5565b92505060206127e385828601612773565b9150509250929050565b6000806040838503121561280057600080fd5b600061280e858286016126e0565b925050602061281f858286016126e0565b9150509250929050565b60008060006060848603121561283e57600080fd5b600061284c868287016126e0565b935050602061285d868287016126e0565b925050604061286e86828701612773565b9150509250925092565b6000806000806080858703121561288e57600080fd5b600061289c878288016126e0565b94505060206128ad878288016126e0565b93505060406128be87828801612773565b925050606085013567ffffffffffffffff8111156128db57600080fd5b6128e787828801612749565b91505092959194509250565b6000806040838503121561290657600080fd5b6000612914858286016126e0565b92505060206129258582860161270a565b9150509250929050565b6000806040838503121561294257600080fd5b6000612950858286016126e0565b925050602061296185828601612773565b9150509250929050565b6000806040838503121561297e57600080fd5b600061298c8582860161270a565b925050602061299d85828601612773565b9150509250929050565b6000602082840312156129b957600080fd5b60006129c78482850161271f565b91505092915050565b6000602082840312156129e257600080fd5b60006129f084828501612734565b91505092915050565b600060208284031215612a0b57600080fd5b6000612a1984828501612773565b91505092915050565b60008060408385031215612a3557600080fd5b6000612a4385828601612773565b9250506020612a54858286016126e0565b9150509250929050565b612a67816136fc565b82525050565b612a7681613720565b82525050565b6000612a87826135a4565b612a9181856135ba565b9350612aa18185602086016137b6565b612aaa81613980565b840191505092915050565b612abe81613795565b82525050565b6000612acf826135af565b612ad981856135cb565b9350612ae98185602086016137b6565b612af281613980565b840191505092915050565b6000612b08826135af565b612b1281856135dc565b9350612b228185602086016137b6565b80840191505092915050565b6000612b3b6032836135cb565b91507f4552433732313a207472616e7366657220746f206e6f6e20455243373231526560008301527f63656976657220696d706c656d656e74657200000000000000000000000000006020830152604082019050919050565b6000612ba1601c836135cb565b91507f4552433732313a20746f6b656e20616c7265616479206d696e746564000000006000830152602082019050919050565b6000612be16015836135cb565b91507f7075626c6973686564206e6f74207965742073657400000000000000000000006000830152602082019050919050565b6000612c21601b836135cb565b91507f5075626c69736865642052696768743a207265737472696374656400000000006000830152602082019050919050565b6000612c616024836135cb565b91507f4552433732313a207472616e7366657220746f20746865207a65726f2061646460008301527f72657373000000000000000000000000000000000000000000000000000000006020830152604082019050919050565b6000612cc76019836135cb565b91507f4552433732313a20617070726f766520746f2063616c6c6572000000000000006000830152602082019050919050565b6000612d076012836135cb565b91507f72652d656e7472616e63792061747461636b00000000000000000000000000006000830152602082019050919050565b6000612d47602c836135cb565b91507f4552433732313a206f70657261746f7220717565727920666f72206e6f6e657860008301527f697374656e7420746f6b656e00000000000000000000000000000000000000006020830152604082019050919050565b6000612dad6038836135cb565b91507f4552433732313a20617070726f76652063616c6c6572206973206e6f74206f7760008301527f6e6572206e6f7220617070726f76656420666f7220616c6c00000000000000006020830152604082019050919050565b6000612e13602a836135cb565b91507f4552433732313a2062616c616e636520717565727920666f7220746865207a6560008301527f726f2061646472657373000000000000000000000000000000000000000000006020830152604082019050919050565b6000612e796029836135cb565b91507f4552433732313a206f776e657220717565727920666f72206e6f6e657869737460008301527f656e7420746f6b656e00000000000000000000000000000000000000000000006020830152604082019050919050565b6000612edf6020836135cb565b91507f4552433732313a206d696e7420746f20746865207a65726f20616464726573736000830152602082019050919050565b6000612f1f602c836135cb565b91507f4552433732313a20617070726f76656420717565727920666f72206e6f6e657860008301527f697374656e7420746f6b656e00000000000000000000000000000000000000006020830152604082019050919050565b6000612f856029836135cb565b91507f4552433732313a207472616e73666572206f6620746f6b656e2074686174206960008301527f73206e6f74206f776e00000000000000000000000000000000000000000000006020830152604082019050919050565b6000612feb602f836135cb565b91507f4552433732314d657461646174613a2055524920717565727920666f72206e6f60008301527f6e6578697374656e7420746f6b656e00000000000000000000000000000000006020830152604082019050919050565b60006130516021836135cb565b91507f4552433732313a20617070726f76616c20746f2063757272656e74206f776e6560008301527f72000000000000000000000000000000000000000000000000000000000000006020830152604082019050919050565b60006130b76031836135cb565b91507f4552433732313a207472616e736665722063616c6c6572206973206e6f74206f60008301527f776e6572206e6f7220617070726f7665640000000000000000000000000000006020830152604082019050919050565b600061311d600c836135cb565b91507f57726f6e6720417574686f7200000000000000000000000000000000000000006000830152602082019050919050565b600061315d600f836135cb565b91507f57726f6e67205075626c697368657200000000000000000000000000000000006000830152602082019050919050565b6131998161378b565b82525050565b60006131ab8285612afd565b91506131b78284612afd565b91508190509392505050565b60006020820190506131d86000830184612a5e565b92915050565b60006080820190506131f36000830187612a5e565b6132006020830186612a5e565b61320d6040830185613190565b818103606083015261321f8184612a7c565b905095945050505050565b600060208201905061323f6000830184612a6d565b92915050565b6000602082019050818103600083015261325f8184612ac4565b905092915050565b6000602082019050818103600083015261328081612b2e565b9050919050565b600060208201905081810360008301526132a081612b94565b9050919050565b600060208201905081810360008301526132c081612bd4565b9050919050565b600060208201905081810360008301526132e081612c14565b9050919050565b6000602082019050818103600083015261330081612c54565b9050919050565b6000602082019050818103600083015261332081612cba565b9050919050565b6000602082019050818103600083015261334081612cfa565b9050919050565b6000602082019050818103600083015261336081612d3a565b9050919050565b6000602082019050818103600083015261338081612da0565b9050919050565b600060208201905081810360008301526133a081612e06565b9050919050565b600060208201905081810360008301526133c081612e6c565b9050919050565b600060208201905081810360008301526133e081612ed2565b9050919050565b6000602082019050818103600083015261340081612f12565b9050919050565b6000602082019050818103600083015261342081612f78565b9050919050565b6000602082019050818103600083015261344081612fde565b9050919050565b6000602082019050818103600083015261346081613044565b9050919050565b60006020820190508181036000830152613480816130aa565b9050919050565b600060208201905081810360008301526134a081613110565b9050919050565b600060208201905081810360008301526134c081613150565b9050919050565b60006020820190506134dc6000830184613190565b92915050565b600060c0820190506134f76000830189613190565b6135046020830188613190565b6135116040830187612a5e565b61351e6060830186612a5e565b61352b6080830185612a5e565b61353860a0830184612ab5565b979650505050505050565b6000604051905081810181811067ffffffffffffffff8211171561356a57613569613951565b5b8060405250919050565b600067ffffffffffffffff82111561358f5761358e613951565b5b601f19601f8301169050602081019050919050565b600081519050919050565b600081519050919050565b600082825260208201905092915050565b600082825260208201905092915050565b600081905092915050565b60006135f28261378b565b91506135fd8361378b565b9250827fffffffffffffffffffffffffffffffffffffffffffffffffffffffffffffffff0382111561363257613631613895565b5b828201905092915050565b60006136488261378b565b91506136538361378b565b925082613663576136626138c4565b5b828204905092915050565b60006136798261378b565b91506136848361378b565b9250817fffffffffffffffffffffffffffffffffffffffffffffffffffffffffffffffff04831182151516156136bd576136bc613895565b5b828202905092915050565b60006136d38261378b565b91506136de8361378b565b9250828210156136f1576136f0613895565b5b828203905092915050565b60006137078261376b565b9050919050565b60006137198261376b565b9050919050565b60008115159050919050565b60007fffffffff0000000000000000000000000000000000000000000000000000000082169050919050565b600081905061376682613991565b919050565b600073ffffffffffffffffffffffffffffffffffffffff82169050919050565b6000819050919050565b60006137a082613758565b9050919050565b82818337600083830152505050565b60005b838110156137d45780820151818401526020810190506137b9565b838111156137e3576000848401525b50505050565b6000600282049050600182168061380157607f821691505b6020821081141561381557613814613922565b5b50919050565b60006138268261378b565b91507fffffffffffffffffffffffffffffffffffffffffffffffffffffffffffffffff82141561385957613858613895565b5b600182019050919050565b600061386f8261378b565b915061387a8361378b565b92508261388a576138896138c4565b5b828206905092915050565b7f4e487b7100000000000000000000000000000000000000000000000000000000600052601160045260246000fd5b7f4e487b7100000000000000000000000000000000000000000000000000000000600052601260045260246000fd5b7f4e487b7100000000000000000000000000000000000000000000000000000000600052602160045260246000fd5b7f4e487b7100000000000000000000000000000000000000000000000000000000600052602260045260246000fd5b7f4e487b7100000000000000000000000000000000000000000000000000000000600052604160045260246000fd5b6000601f19601f8301169050919050565b600281106139a2576139a16138f3565b5b50565b6139ae816136fc565b81146139b957600080fd5b50565b6139c58161370e565b81146139d057600080fd5b50565b6139dc81613720565b81146139e757600080fd5b50565b6139f38161372c565b81146139fe57600080fd5b50565b613a0a8161378b565b8114613a1557600080fd5b5056fea264697066735822122076cf27d3bb66165f0fcf326d0e8d9f616a5225320b7338a5cb42b2236de6aaee64736f6c63430008000033",
  "linkReferences": {},
  "deployedLinkReferences": {}
}