{
  "_format": "hh-sol-artifact-1",
  "contractName": "BookContractFactory",
  "sourceName": "contracts/BookContractFactory.sol",
  "abi": [
    {
      "anonymous": false,
      "inputs": [
        {
          "indexed": true,
          "internalType": "address",
          "name": "previousOwner",
          "type": "address"
        },
        {
          "indexed": true,
          "internalType": "address",
          "name": "newOwner",
          "type": "address"
        }
      ],
      "name": "OwnershipTransferred",
      "type": "event"
    },
    {
      "anonymous": false,
      "inputs": [
        {
          "indexed": true,
          "internalType": "address",
          "name": "creator",
          "type": "address"
        },
        {
          "indexed": true,
          "internalType": "uint256",
          "name": "bookId",
          "type": "uint256"
        },
        {
          "indexed": true,
          "internalType": "address",
          "name": "bookAddress",
          "type": "address"
        }
      ],
      "name": "bookContractCreated",
      "type": "event"
    },
    {
      "inputs": [
        {
          "internalType": "address",
          "name": "",
          "type": "address"
        }
      ],
      "name": "BookAuthors",
      "outputs": [
        {
          "internalType": "string",
          "name": "title",
          "type": "string"
        },
        {
          "internalType": "string",
          "name": "symbol",
          "type": "string"
        },
        {
          "internalType": "uint256",
          "name": "bookID",
          "type": "uint256"
        },
        {
          "internalType": "address",
          "name": "creator",
          "type": "address"
        },
        {
          "internalType": "string",
          "name": "hashString",
          "type": "string"
        }
      ],
      "stateMutability": "view",
      "type": "function"
    },
    {
      "inputs": [
        {
          "internalType": "uint256",
          "name": "",
          "type": "uint256"
        }
      ],
      "name": "bookAddresses",
      "outputs": [
        {
          "internalType": "address",
          "name": "",
          "type": "address"
        }
      ],
      "stateMutability": "view",
      "type": "function"
    },
    {
      "inputs": [
        {
          "internalType": "string",
          "name": "_bookTitle",
          "type": "string"
        },
        {
          "internalType": "string",
          "name": "_bookSymbol",
          "type": "string"
        },
        {
          "internalType": "bool",
          "name": "_published",
          "type": "bool"
        },
        {
          "internalType": "string",
          "name": "_hashString",
          "type": "string"
        }
      ],
      "name": "createBookContract",
      "outputs": [
        {
          "internalType": "uint256",
          "name": "id",
          "type": "uint256"
        },
        {
          "internalType": "address",
          "name": "newBookAddress",
          "type": "address"
        }
      ],
      "stateMutability": "nonpayable",
      "type": "function"
    },
    {
      "inputs": [],
      "name": "owner",
      "outputs": [
        {
          "internalType": "address",
          "name": "",
          "type": "address"
        }
      ],
      "stateMutability": "view",
      "type": "function"
    },
    {
      "inputs": [],
      "name": "renounceOwnership",
      "outputs": [],
      "stateMutability": "nonpayable",
      "type": "function"
    },
    {
      "inputs": [
        {
          "internalType": "address",
          "name": "newOwner",
          "type": "address"
        }
      ],
      "name": "transferOwnership",
      "outputs": [],
      "stateMutability": "nonpayable",
      "type": "function"
    }
  ],
  "bytecode": "0x608060405234801561001057600080fd5b5060006100216100c460201b60201c565b9050806000806101000a81548173ffffffffffffffffffffffffffffffffffffffff021916908373ffffffffffffffffffffffffffffffffffffffff1602179055508073ffffffffffffffffffffffffffffffffffffffff16600073ffffffffffffffffffffffffffffffffffffffff167f8be0079c531659141344cd1fd0a4f28419497f9722a3daafe3b4186f6b6457e060405160405180910390a3506100cc565b600033905090565b6150ab806100db6000396000f3fe60806040523480156200001157600080fd5b50600436106200006a5760003560e01c806317255bcb146200006f578063715018a614620000a95780638da5cb5b14620000b5578063afa9250714620000d7578063f2fde38b146200010e578063f8392282146200012e575b600080fd5b6200008d600480360381019062000087919062000bc7565b62000164565b604051620000a095949392919062000ee0565b60405180910390f35b620000b36200036a565b005b620000bf620004ab565b604051620000ce919062000e78565b60405180910390f35b620000f56004803603810190620000ef919062000bf3565b620004d4565b6040516200010592919062000fda565b60405180910390f35b6200012c600480360381019062000126919062000bc7565b62000857565b005b6200014c600480360381019062000146919062000caa565b62000a0a565b6040516200015b919062000e78565b60405180910390f35b6001602052806000526040600020600091509050806000018054620001899062001154565b80601f0160208091040260200160405190810160405280929190818152602001828054620001b79062001154565b8015620002085780601f10620001dc5761010080835404028352916020019162000208565b820191906000526020600020905b815481529060010190602001808311620001ea57829003601f168201915b5050505050908060010180546200021f9062001154565b80601f01602080910402602001604051908101604052809291908181526020018280546200024d9062001154565b80156200029e5780601f1062000272576101008083540402835291602001916200029e565b820191906000526020600020905b8154815290600101906020018083116200028057829003601f168201915b5050505050908060020154908060030160009054906101000a900473ffffffffffffffffffffffffffffffffffffffff1690806004018054620002e19062001154565b80601f01602080910402602001604051908101604052809291908181526020018280546200030f9062001154565b8015620003605780601f10620003345761010080835404028352916020019162000360565b820191906000526020600020905b8154815290600101906020018083116200034257829003601f168201915b5050505050905085565b6200037462000a4a565b73ffffffffffffffffffffffffffffffffffffffff1662000394620004ab565b73ffffffffffffffffffffffffffffffffffffffff1614620003ed576040517f08c379a0000000000000000000000000000000000000000000000000000000008152600401620003e49062000f74565b60405180910390fd5b600073ffffffffffffffffffffffffffffffffffffffff1660008054906101000a900473ffffffffffffffffffffffffffffffffffffffff1673ffffffffffffffffffffffffffffffffffffffff167f8be0079c531659141344cd1fd0a4f28419497f9722a3daafe3b4186f6b6457e060405160405180910390a360008060006101000a81548173ffffffffffffffffffffffffffffffffffffffff021916908373ffffffffffffffffffffffffffffffffffffffff160217905550565b60008060009054906101000a900473ffffffffffffffffffffffffffffffffffffffff16905090565b600080620004e1620004ab565b73ffffffffffffffffffffffffffffffffffffffff163373ffffffffffffffffffffffffffffffffffffffff16141562000552576040517f08c379a0000000000000000000000000000000000000000000000000000000008152600401620005499062000fb8565b60405180910390fd5b6000868686604051620005659062000a52565b620005739392919062000e95565b604051809103906000f08015801562000590573d6000803e3d6000fd5b5090508091506000600160008473ffffffffffffffffffffffffffffffffffffffff1673ffffffffffffffffffffffffffffffffffffffff1681526020019081526020016000206004018054620005e79062001154565b9050146200062c576040517f08c379a0000000000000000000000000000000000000000000000000000000008152600401620006239062000f96565b60405180910390fd5b6002829080600181540180825580915050600190039060005260206000200160009091909190916101000a81548173ffffffffffffffffffffffffffffffffffffffff021916908373ffffffffffffffffffffffffffffffffffffffff1602179055506001600280549050620006a391906200108a565b925060006040518060a001604052808981526020018881526020018581526020013373ffffffffffffffffffffffffffffffffffffffff16815260200186815250905080600160008573ffffffffffffffffffffffffffffffffffffffff1673ffffffffffffffffffffffffffffffffffffffff16815260200190815260200160002060008201518160000190805190602001906200074492919062000a60565b5060208201518160010190805190602001906200076392919062000a60565b506040820151816002015560608201518160030160006101000a81548173ffffffffffffffffffffffffffffffffffffffff021916908373ffffffffffffffffffffffffffffffffffffffff1602179055506080820151816004019080519060200190620007d392919062000a60565b5090505060036000815480929190620007ec906200118a565b91905055508273ffffffffffffffffffffffffffffffffffffffff16843373ffffffffffffffffffffffffffffffffffffffff167fefefc626e8002b7de1a88a6b5ce1a27652d37473af70ba76ec247eddeec85fc960405160405180910390a4505094509492505050565b6200086162000a4a565b73ffffffffffffffffffffffffffffffffffffffff1662000881620004ab565b73ffffffffffffffffffffffffffffffffffffffff1614620008da576040517f08c379a0000000000000000000000000000000000000000000000000000000008152600401620008d19062000f74565b60405180910390fd5b600073ffffffffffffffffffffffffffffffffffffffff168173ffffffffffffffffffffffffffffffffffffffff1614156200094d576040517f08c379a0000000000000000000000000000000000000000000000000000000008152600401620009449062000f52565b60405180910390fd5b8073ffffffffffffffffffffffffffffffffffffffff1660008054906101000a900473ffffffffffffffffffffffffffffffffffffffff1673ffffffffffffffffffffffffffffffffffffffff167f8be0079c531659141344cd1fd0a4f28419497f9722a3daafe3b4186f6b6457e060405160405180910390a3806000806101000a81548173ffffffffffffffffffffffffffffffffffffffff021916908373ffffffffffffffffffffffffffffffffffffffff16021790555050565b6002818154811062000a1b57600080fd5b906000526020600020016000915054906101000a900473ffffffffffffffffffffffffffffffffffffffff1681565b600033905090565b613db180620012c583390190565b82805462000a6e9062001154565b90600052602060002090601f01602090048101928262000a92576000855562000ade565b82601f1062000aad57805160ff191683800117855562000ade565b8280016001018555821562000ade579182015b8281111562000add57825182559160200191906001019062000ac0565b5b50905062000aed919062000af1565b5090565b5b8082111562000b0c57600081600090555060010162000af2565b5090565b600062000b2762000b21846200103b565b62001007565b90508281526020810184848401111562000b4057600080fd5b62000b4d8482856200110f565b509392505050565b60008135905062000b668162001276565b92915050565b60008135905062000b7d8162001290565b92915050565b600082601f83011262000b9557600080fd5b813562000ba784826020860162000b10565b91505092915050565b60008135905062000bc181620012aa565b92915050565b60006020828403121562000bda57600080fd5b600062000bea8482850162000b55565b91505092915050565b6000806000806080858703121562000c0a57600080fd5b600085013567ffffffffffffffff81111562000c2557600080fd5b62000c338782880162000b83565b945050602085013567ffffffffffffffff81111562000c5157600080fd5b62000c5f8782880162000b83565b935050604062000c728782880162000b6c565b925050606085013567ffffffffffffffff81111562000c9057600080fd5b62000c9e8782880162000b83565b91505092959194509250565b60006020828403121562000cbd57600080fd5b600062000ccd8482850162000bb0565b91505092915050565b62000ce181620010c5565b82525050565b62000cf281620010d9565b82525050565b600062000d05826200106e565b62000d11818562001079565b935062000d238185602086016200111e565b62000d2e8162001265565b840191505092915050565b600062000d4860268362001079565b91507f4f776e61626c653a206e6577206f776e657220697320746865207a65726f206160008301527f64647265737300000000000000000000000000000000000000000000000000006020830152604082019050919050565b600062000db060208362001079565b91507f4f776e61626c653a2063616c6c6572206973206e6f7420746865206f776e65726000830152602082019050919050565b600062000df260188362001079565b91507f636f6e747261637420616c7265616479206372656174656400000000000000006000830152602082019050919050565b600062000e34601f8362001079565b91507f426f6f6b436f6e7472616374466163746f72793a2072657374726963746564006000830152602082019050919050565b62000e728162001105565b82525050565b600060208201905062000e8f600083018462000cd6565b92915050565b6000606082019050818103600083015262000eb1818662000cf8565b9050818103602083015262000ec7818562000cf8565b905062000ed8604083018462000ce7565b949350505050565b600060a082019050818103600083015262000efc818862000cf8565b9050818103602083015262000f12818762000cf8565b905062000f23604083018662000e67565b62000f32606083018562000cd6565b818103608083015262000f46818462000cf8565b90509695505050505050565b6000602082019050818103600083015262000f6d8162000d39565b9050919050565b6000602082019050818103600083015262000f8f8162000da1565b9050919050565b6000602082019050818103600083015262000fb18162000de3565b9050919050565b6000602082019050818103600083015262000fd38162000e25565b9050919050565b600060408201905062000ff1600083018562000e67565b62001000602083018462000cd6565b9392505050565b6000604051905081810181811067ffffffffffffffff8211171562001031576200103062001236565b5b8060405250919050565b600067ffffffffffffffff82111562001059576200105862001236565b5b601f19601f8301169050602081019050919050565b600081519050919050565b600082825260208201905092915050565b6000620010978262001105565b9150620010a48362001105565b925082821015620010ba57620010b9620011d8565b5b828203905092915050565b6000620010d282620010e5565b9050919050565b60008115159050919050565b600073ffffffffffffffffffffffffffffffffffffffff82169050919050565b6000819050919050565b82818337600083830152505050565b60005b838110156200113e57808201518184015260208101905062001121565b838111156200114e576000848401525b50505050565b600060028204905060018216806200116d57607f821691505b6020821081141562001184576200118362001207565b5b50919050565b6000620011978262001105565b91507fffffffffffffffffffffffffffffffffffffffffffffffffffffffffffffffff821415620011cd57620011cc620011d8565b5b600182019050919050565b7f4e487b7100000000000000000000000000000000000000000000000000000000600052601160045260246000fd5b7f4e487b7100000000000000000000000000000000000000000000000000000000600052602260045260246000fd5b7f4e487b7100000000000000000000000000000000000000000000000000000000600052604160045260246000fd5b6000601f19601f8301169050919050565b6200128181620010c5565b81146200128d57600080fd5b50565b6200129b81620010d9565b8114620012a757600080fd5b50565b620012b58162001105565b8114620012c157600080fd5b5056fe60806040523480156200001157600080fd5b5060405162003db138038062003db183398181016040528101906200003791906200020a565b8282816000908051906020019062000051929190620000d1565b5080600190805190602001906200006a929190620000d1565b50505080600860006101000a81548160ff02191690831515021790555033600860016101000a81548173ffffffffffffffffffffffffffffffffffffffff021916908373ffffffffffffffffffffffffffffffffffffffff160217905550505050620003e9565b828054620000df906200033b565b90600052602060002090601f0160209004810192826200010357600085556200014f565b82601f106200011e57805160ff19168380011785556200014f565b828001600101855582156200014f579182015b828111156200014e57825182559160200191906001019062000131565b5b5090506200015e919062000162565b5090565b5b808211156200017d57600081600090555060010162000163565b5090565b6000620001986200019284620002c6565b62000292565b905082815260208101848484011115620001b157600080fd5b620001be84828562000305565b509392505050565b600081519050620001d781620003cf565b92915050565b600082601f830112620001ef57600080fd5b81516200020184826020860162000181565b91505092915050565b6000806000606084860312156200022057600080fd5b600084015167ffffffffffffffff8111156200023b57600080fd5b6200024986828701620001dd565b935050602084015167ffffffffffffffff8111156200026757600080fd5b6200027586828701620001dd565b92505060406200028886828701620001c6565b9150509250925092565b6000604051905081810181811067ffffffffffffffff82111715620002bc57620002bb620003a0565b5b8060405250919050565b600067ffffffffffffffff821115620002e457620002e3620003a0565b5b601f19601f8301169050602081019050919050565b60008115159050919050565b60005b838110156200032557808201518184015260208101905062000308565b8381111562000335576000848401525b50505050565b600060028204905060018216806200035457607f821691505b602082108114156200036b576200036a62000371565b5b50919050565b7f4e487b7100000000000000000000000000000000000000000000000000000000600052602260045260246000fd5b7f4e487b7100000000000000000000000000000000000000000000000000000000600052604160045260246000fd5b620003da81620002f9565b8114620003e657600080fd5b50565b6139b880620003f96000396000f3fe60806040526004361061019c5760003560e01c8063625e7a5a116100ec57806395d89b411161008a578063b88d4fde11610064578063b88d4fde146105b9578063bfab3db9146105e2578063c87b56dd146105ec578063e985e9c5146106295761019c565b806395d89b4114610523578063a22cb4651461054e578063a644c199146105775761019c565b806370a08231116100c657806370a08231146104505780637ebdc6e01461048d57806383b65cb4146104b65780638b7afe2e146104f85761019c565b8063625e7a5a146103ce5780636352211e146103f75780636ee26566146104345761019c565b806323b872dd1161015957806339f9c82c1161013357806339f9c82c1461033357806342842e0e1461035e578063596a1e20146103875780635ad7dd7f146103b25761019c565b806323b872dd146102b657806334eafb11146102df5780633880306b1461030a5761019c565b806301ffc9a7146101a157806306fdde03146101de578063081812fc14610209578063095ea7b3146102465780630d4831e31461026f57806311864fed1461028b575b600080fd5b3480156101ad57600080fd5b506101c860048036038101906101c39190612971565b610666565b6040516101d591906131b4565b60405180910390f35b3480156101ea57600080fd5b506101f3610748565b60405161020091906131cf565b60405180910390f35b34801561021557600080fd5b50610230600480360381019061022b91906129c3565b6107da565b60405161023d919061314d565b60405180910390f35b34801561025257600080fd5b5061026d600480360381019061026891906128f9565b61085f565b005b6102896004803603810190610284919061277b565b610977565b005b34801561029757600080fd5b506102a0610a76565b6040516102ad9190613431565b60405180910390f35b3480156102c257600080fd5b506102dd60048036038101906102d891906127f3565b610a7c565b005b3480156102eb57600080fd5b506102f4610adc565b6040516103019190613431565b60405180910390f35b34801561031657600080fd5b50610331600480360381019061032c91906129ec565b610ae2565b005b34801561033f57600080fd5b50610348610f14565b6040516103559190613431565b60405180910390f35b34801561036a57600080fd5b50610385600480360381019061038091906127f3565b610f1a565b005b34801561039357600080fd5b5061039c610f3a565b6040516103a99190613431565b60405180910390f35b6103cc60048036038101906103c7919061277b565b610f40565b005b3480156103da57600080fd5b506103f560048036038101906103f09190612935565b61103f565b005b34801561040357600080fd5b5061041e600480360381019061041991906129c3565b61116f565b60405161042b919061314d565b60405180910390f35b61044e600480360381019061044991906129c3565b611221565b005b34801561045c57600080fd5b5061047760048036038101906104729190612752565b6113fa565b6040516104849190613431565b60405180910390f35b34801561049957600080fd5b506104b460048036038101906104af91906128f9565b6114b2565b005b3480156104c257600080fd5b506104dd60048036038101906104d891906129c3565b6115bb565b6040516104ef9695949392919061344c565b60405180910390f35b34801561050457600080fd5b5061050d611664565b60405161051a9190613431565b60405180910390f35b34801561052f57600080fd5b5061053861166a565b60405161054591906131cf565b60405180910390f35b34801561055a57600080fd5b50610575600480360381019061057091906128bd565b6116fc565b005b34801561058357600080fd5b5061059e600480360381019061059991906129c3565b61187d565b6040516105b09695949392919061344c565b60405180910390f35b3480156105c557600080fd5b506105e060048036038101906105db9190612842565b611936565b005b6105ea611998565b005b3480156105f857600080fd5b50610613600480360381019061060e91906129c3565b611a4a565b60405161062091906131cf565b60405180910390f35b34801561063557600080fd5b50610650600480360381019061064b91906127b7565b611af1565b60405161065d91906131b4565b60405180910390f35b60007f80ac58cd000000000000000000000000000000000000000000000000000000007bffffffffffffffffffffffffffffffffffffffffffffffffffffffff1916827bffffffffffffffffffffffffffffffffffffffffffffffffffffffff1916148061073157507f5b5e139f000000000000000000000000000000000000000000000000000000007bffffffffffffffffffffffffffffffffffffffffffffffffffffffff1916827bffffffffffffffffffffffffffffffffffffffffffffffffffffffff1916145b80610741575061074082611b85565b5b9050919050565b60606000805461075790613753565b80601f016020809104026020016040519081016040528092919081815260200182805461078390613753565b80156107d05780601f106107a5576101008083540402835291602001916107d0565b820191906000526020600020905b8154815290600101906020018083116107b357829003601f168201915b5050505050905090565b60006107e582611bef565b610824576040517f08c379a000000000000000000000000000000000000000000000000000000000815260040161081b90613351565b60405180910390fd5b6004600083815260200190815260200160002060009054906101000a900473ffffffffffffffffffffffffffffffffffffffff169050919050565b600061086a8261116f565b90508073ffffffffffffffffffffffffffffffffffffffff168373ffffffffffffffffffffffffffffffffffffffff1614156108db576040517f08c379a00000000000000000000000000000000000000000000000000000000081526004016108d2906133b1565b60405180910390fd5b8073ffffffffffffffffffffffffffffffffffffffff166108fa611c5b565b73ffffffffffffffffffffffffffffffffffffffff161480610929575061092881610923611c5b565b611af1565b5b610968576040517f08c379a000000000000000000000000000000000000000000000000000000000815260040161095f906132d1565b60405180910390fd5b6109728383611c63565b505050565b600a600082815260200190815260200160002060030160009054906101000a900473ffffffffffffffffffffffffffffffffffffffff1673ffffffffffffffffffffffffffffffffffffffff168273ffffffffffffffffffffffffffffffffffffffff1614610a1b576040517f08c379a0000000000000000000000000000000000000000000000000000000008152600401610a12906133f1565b60405180910390fd5b6000600b5490506000600b819055508273ffffffffffffffffffffffffffffffffffffffff166108fc829081150290604051600060405180830381858888f19350505050158015610a70573d6000803e3d6000fd5b50505050565b600b5481565b610a8d610a87611c5b565b82611d1c565b610acc576040517f08c379a0000000000000000000000000000000000000000000000000000000008152600401610ac3906133d1565b60405180910390fd5b610ad7838383611dfa565b505050565b60065481565b60011515600860009054906101000a900460ff16151514610b38576040517f08c379a0000000000000000000000000000000000000000000000000000000008152600401610b2f90613231565b60405180910390fd5b60066000815480929190610b4b90613785565b919050555060006040518060c0016040528060065481526020018481526020013373ffffffffffffffffffffffffffffffffffffffff1681526020018373ffffffffffffffffffffffffffffffffffffffff1681526020013373ffffffffffffffffffffffffffffffffffffffff16815260200160006001811115610bf9577f4e487b7100000000000000000000000000000000000000000000000000000000600052602160045260246000fd5b81525090506009819080600181540180825580915050600190039060005260206000209060050201600090919091909150600082015181600001556020820151816001015560408201518160020160006101000a81548173ffffffffffffffffffffffffffffffffffffffff021916908373ffffffffffffffffffffffffffffffffffffffff16021790555060608201518160030160006101000a81548173ffffffffffffffffffffffffffffffffffffffff021916908373ffffffffffffffffffffffffffffffffffffffff16021790555060808201518160040160006101000a81548173ffffffffffffffffffffffffffffffffffffffff021916908373ffffffffffffffffffffffffffffffffffffffff16021790555060a08201518160040160146101000a81548160ff02191690836001811115610d64577f4e487b7100000000000000000000000000000000000000000000000000000000600052602160045260246000fd5b0217905550505060006001600980549050610d7f9190613632565b9050610d8b3382612056565b81600a6000838152602001908152602001600020600082015181600001556020820151816001015560408201518160020160006101000a81548173ffffffffffffffffffffffffffffffffffffffff021916908373ffffffffffffffffffffffffffffffffffffffff16021790555060608201518160030160006101000a81548173ffffffffffffffffffffffffffffffffffffffff021916908373ffffffffffffffffffffffffffffffffffffffff16021790555060808201518160040160006101000a81548173ffffffffffffffffffffffffffffffffffffffff021916908373ffffffffffffffffffffffffffffffffffffffff16021790555060a08201518160040160146101000a81548160ff02191690836001811115610ed9577f4e487b7100000000000000000000000000000000000000000000000000000000600052602160045260246000fd5b0217905550905050807fb731d3c27c98bd8dec0bd451c9cecbbea0497787f3d725cc69d4d6c44a3a728560405160405180910390a250505050565b60075481565b610f3583838360405180602001604052806000815250611936565b505050565b600c5481565b600a600082815260200190815260200160002060040160009054906101000a900473ffffffffffffffffffffffffffffffffffffffff1673ffffffffffffffffffffffffffffffffffffffff168273ffffffffffffffffffffffffffffffffffffffff1614610fe4576040517f08c379a0000000000000000000000000000000000000000000000000000000008152600401610fdb90613411565b60405180910390fd5b6000600c5490506000600c819055508273ffffffffffffffffffffffffffffffffffffffff166108fc829081150290604051600060405180830381858888f19350505050158015611039573d6000803e3d6000fd5b50505050565b80600a600082815260200190815260200160002060040160009054906101000a900473ffffffffffffffffffffffffffffffffffffffff1673ffffffffffffffffffffffffffffffffffffffff163373ffffffffffffffffffffffffffffffffffffffff1614806111115750600a600082815260200190815260200160002060030160009054906101000a900473ffffffffffffffffffffffffffffffffffffffff1673ffffffffffffffffffffffffffffffffffffffff163373ffffffffffffffffffffffffffffffffffffffff16145b611150576040517f08c379a000000000000000000000000000000000000000000000000000000000815260040161114790613251565b60405180910390fd5b82600860006101000a81548160ff021916908315150217905550505050565b6000806002600084815260200190815260200160002060009054906101000a900473ffffffffffffffffffffffffffffffffffffffff169050600073ffffffffffffffffffffffffffffffffffffffff168173ffffffffffffffffffffffffffffffffffffffff161415611218576040517f08c379a000000000000000000000000000000000000000000000000000000000815260040161120f90613311565b60405180910390fd5b80915050919050565b600a60008281526020019081526020016000206001015434101561124457600080fd5b600073ffffffffffffffffffffffffffffffffffffffff163373ffffffffffffffffffffffffffffffffffffffff16141561127e57600080fd5b6000339050600a60008381526020019081526020016000206001015434111561130a578073ffffffffffffffffffffffffffffffffffffffff166108fc600a600085815260200190815260200160002060010154346112dd9190613632565b9081150290604051600060405180830381858888f19350505050158015611308573d6000803e3d6000fd5b505b6064600a8060008581526020019081526020016000206001015461132e91906135d8565b61133891906135a7565b600d60008282546113499190613551565b9250508190555060646032600a60008581526020019081526020016000206001015461137591906135d8565b61137f91906135a7565b600b60008282546113909190613551565b9250508190555060646028600a6000858152602001908152602001600020600101546113bc91906135d8565b6113c691906135a7565b600c60008282546113d79190613551565b92505081905550600760008154809291906113f190613785565b91905055505050565b60008073ffffffffffffffffffffffffffffffffffffffff168273ffffffffffffffffffffffffffffffffffffffff16141561146b576040517f08c379a0000000000000000000000000000000000000000000000000000000008152600401611462906132f1565b60405180910390fd5b600360008373ffffffffffffffffffffffffffffffffffffffff1673ffffffffffffffffffffffffffffffffffffffff168152602001908152602001600020549050919050565b600073ffffffffffffffffffffffffffffffffffffffff163373ffffffffffffffffffffffffffffffffffffffff1614156114ec57600080fd5b60003390506114fc818484610a7c565b82600a600084815260200190815260200160002060020160006101000a81548173ffffffffffffffffffffffffffffffffffffffff021916908373ffffffffffffffffffffffffffffffffffffffff1602179055506001600a600084815260200190815260200160002060040160146101000a81548160ff021916908360018111156115b1577f4e487b7100000000000000000000000000000000000000000000000000000000600052602160045260246000fd5b0217905550505050565b600a6020528060005260406000206000915090508060000154908060010154908060020160009054906101000a900473ffffffffffffffffffffffffffffffffffffffff16908060030160009054906101000a900473ffffffffffffffffffffffffffffffffffffffff16908060040160009054906101000a900473ffffffffffffffffffffffffffffffffffffffff16908060040160149054906101000a900460ff16905086565b600d5481565b60606001805461167990613753565b80601f01602080910402602001604051908101604052809291908181526020018280546116a590613753565b80156116f25780601f106116c7576101008083540402835291602001916116f2565b820191906000526020600020905b8154815290600101906020018083116116d557829003601f168201915b5050505050905090565b611704611c5b565b73ffffffffffffffffffffffffffffffffffffffff168273ffffffffffffffffffffffffffffffffffffffff161415611772576040517f08c379a000000000000000000000000000000000000000000000000000000000815260040161176990613291565b60405180910390fd5b806005600061177f611c5b565b73ffffffffffffffffffffffffffffffffffffffff1673ffffffffffffffffffffffffffffffffffffffff16815260200190815260200160002060008473ffffffffffffffffffffffffffffffffffffffff1673ffffffffffffffffffffffffffffffffffffffff16815260200190815260200160002060006101000a81548160ff0219169083151502179055508173ffffffffffffffffffffffffffffffffffffffff1661182c611c5b565b73ffffffffffffffffffffffffffffffffffffffff167f17307eab39ab6107e8899845ad3d59bd9653f200f220920489ca2b5937696c318360405161187191906131b4565b60405180910390a35050565b6009818154811061188d57600080fd5b90600052602060002090600502016000915090508060000154908060010154908060020160009054906101000a900473ffffffffffffffffffffffffffffffffffffffff16908060030160009054906101000a900473ffffffffffffffffffffffffffffffffffffffff16908060040160009054906101000a900473ffffffffffffffffffffffffffffffffffffffff16908060040160149054906101000a900460ff16905086565b611947611941611c5b565b83611d1c565b611986576040517f08c379a000000000000000000000000000000000000000000000000000000000815260040161197d906133d1565b60405180910390fd5b61199284848484612074565b50505050565b600e60009054906101000a900460ff16156119b257600080fd5b6001600e60006101000a81548160ff021916908315150217905550600860019054906101000a900473ffffffffffffffffffffffffffffffffffffffff1673ffffffffffffffffffffffffffffffffffffffff166108fc479081150290604051600060405180830381858888f19350505050611a2d57600080fd5b6000600e60006101000a81548160ff021916908315150217905550565b6060611a5582611bef565b611a94576040517f08c379a0000000000000000000000000000000000000000000000000000000008152600401611a8b90613391565b60405180910390fd5b6000611a9e6120d0565b90506000815111611abe5760405180602001604052806000815250611ae9565b80611ac8846120e7565b604051602001611ad9929190613129565b6040516020818303038152906040525b915050919050565b6000600560008473ffffffffffffffffffffffffffffffffffffffff1673ffffffffffffffffffffffffffffffffffffffff16815260200190815260200160002060008373ffffffffffffffffffffffffffffffffffffffff1673ffffffffffffffffffffffffffffffffffffffff16815260200190815260200160002060009054906101000a900460ff16905092915050565b60007f01ffc9a7000000000000000000000000000000000000000000000000000000007bffffffffffffffffffffffffffffffffffffffffffffffffffffffff1916827bffffffffffffffffffffffffffffffffffffffffffffffffffffffff1916149050919050565b60008073ffffffffffffffffffffffffffffffffffffffff166002600084815260200190815260200160002060009054906101000a900473ffffffffffffffffffffffffffffffffffffffff1673ffffffffffffffffffffffffffffffffffffffff1614159050919050565b600033905090565b816004600083815260200190815260200160002060006101000a81548173ffffffffffffffffffffffffffffffffffffffff021916908373ffffffffffffffffffffffffffffffffffffffff160217905550808273ffffffffffffffffffffffffffffffffffffffff16611cd68361116f565b73ffffffffffffffffffffffffffffffffffffffff167f8c5be1e5ebec7d5bd14f71427d1e84f3dd0314c0f7b2291e5b200ac8c7c3b92560405160405180910390a45050565b6000611d2782611bef565b611d66576040517f08c379a0000000000000000000000000000000000000000000000000000000008152600401611d5d906132b1565b60405180910390fd5b6000611d718361116f565b90508073ffffffffffffffffffffffffffffffffffffffff168473ffffffffffffffffffffffffffffffffffffffff161480611de057508373ffffffffffffffffffffffffffffffffffffffff16611dc8846107da565b73ffffffffffffffffffffffffffffffffffffffff16145b80611df15750611df08185611af1565b5b91505092915050565b8273ffffffffffffffffffffffffffffffffffffffff16611e1a8261116f565b73ffffffffffffffffffffffffffffffffffffffff1614611e70576040517f08c379a0000000000000000000000000000000000000000000000000000000008152600401611e6790613371565b60405180910390fd5b600073ffffffffffffffffffffffffffffffffffffffff168273ffffffffffffffffffffffffffffffffffffffff161415611ee0576040517f08c379a0000000000000000000000000000000000000000000000000000000008152600401611ed790613271565b60405180910390fd5b611eeb838383612294565b611ef6600082611c63565b6001600360008573ffffffffffffffffffffffffffffffffffffffff1673ffffffffffffffffffffffffffffffffffffffff1681526020019081526020016000206000828254611f469190613632565b925050819055506001600360008473ffffffffffffffffffffffffffffffffffffffff1673ffffffffffffffffffffffffffffffffffffffff1681526020019081526020016000206000828254611f9d9190613551565b92505081905550816002600083815260200190815260200160002060006101000a81548173ffffffffffffffffffffffffffffffffffffffff021916908373ffffffffffffffffffffffffffffffffffffffff160217905550808273ffffffffffffffffffffffffffffffffffffffff168473ffffffffffffffffffffffffffffffffffffffff167fddf252ad1be2c89b69c2b068fc378daa952ba7f163c4a11628f55a4df523b3ef60405160405180910390a4505050565b612070828260405180602001604052806000815250612299565b5050565b61207f848484611dfa565b61208b848484846122f4565b6120ca576040517f08c379a00000000000000000000000000000000000000000000000000000000081526004016120c1906131f1565b60405180910390fd5b50505050565b606060405180602001604052806000815250905090565b6060600082141561212f576040518060400160405280600181526020017f3000000000000000000000000000000000000000000000000000000000000000815250905061228f565b600082905060005b6000821461216157808061214a90613785565b915050600a8261215a91906135a7565b9150612137565b60008167ffffffffffffffff8111156121a3577f4e487b7100000000000000000000000000000000000000000000000000000000600052604160045260246000fd5b6040519080825280601f01601f1916602001820160405280156121d55781602001600182028036833780820191505090505b5090505b60008514612288576001826121ee9190613632565b9150600a856121fd91906137ce565b60306122099190613551565b60f81b818381518110612245577f4e487b7100000000000000000000000000000000000000000000000000000000600052603260045260246000fd5b60200101907effffffffffffffffffffffffffffffffffffffffffffffffffffffffffffff1916908160001a905350600a8561228191906135a7565b94506121d9565b8093505050505b919050565b505050565b6122a3838361248b565b6122b060008484846122f4565b6122ef576040517f08c379a00000000000000000000000000000000000000000000000000000000081526004016122e6906131f1565b60405180910390fd5b505050565b60006123158473ffffffffffffffffffffffffffffffffffffffff16612659565b1561247e578373ffffffffffffffffffffffffffffffffffffffff1663150b7a0261233e611c5b565b8786866040518563ffffffff1660e01b81526004016123609493929190613168565b602060405180830381600087803b15801561237a57600080fd5b505af19250505080156123ab57506040513d601f19601f820116820180604052508101906123a8919061299a565b60015b61242e573d80600081146123db576040519150601f19603f3d011682016040523d82523d6000602084013e6123e0565b606091505b50600081511415612426576040517f08c379a000000000000000000000000000000000000000000000000000000000815260040161241d906131f1565b60405180910390fd5b805181602001fd5b63150b7a0260e01b7bffffffffffffffffffffffffffffffffffffffffffffffffffffffff1916817bffffffffffffffffffffffffffffffffffffffffffffffffffffffff191614915050612483565b600190505b949350505050565b600073ffffffffffffffffffffffffffffffffffffffff168273ffffffffffffffffffffffffffffffffffffffff1614156124fb576040517f08c379a00000000000000000000000000000000000000000000000000000000081526004016124f290613331565b60405180910390fd5b61250481611bef565b15612544576040517f08c379a000000000000000000000000000000000000000000000000000000000815260040161253b90613211565b60405180910390fd5b61255060008383612294565b6001600360008473ffffffffffffffffffffffffffffffffffffffff1673ffffffffffffffffffffffffffffffffffffffff16815260200190815260200160002060008282546125a09190613551565b92505081905550816002600083815260200190815260200160002060006101000a81548173ffffffffffffffffffffffffffffffffffffffff021916908373ffffffffffffffffffffffffffffffffffffffff160217905550808273ffffffffffffffffffffffffffffffffffffffff16600073ffffffffffffffffffffffffffffffffffffffff167fddf252ad1be2c89b69c2b068fc378daa952ba7f163c4a11628f55a4df523b3ef60405160405180910390a45050565b600080823b905060008111915050919050565b600061267f61267a846134de565b6134ad565b90508281526020810184848401111561269757600080fd5b6126a2848285613711565b509392505050565b6000813590506126b98161390f565b92915050565b6000813590506126ce81613926565b92915050565b6000813590506126e38161393d565b92915050565b6000813590506126f881613954565b92915050565b60008151905061270d81613954565b92915050565b600082601f83011261272457600080fd5b813561273484826020860161266c565b91505092915050565b60008135905061274c8161396b565b92915050565b60006020828403121561276457600080fd5b6000612772848285016126aa565b91505092915050565b6000806040838503121561278e57600080fd5b600061279c858286016126bf565b92505060206127ad8582860161273d565b9150509250929050565b600080604083850312156127ca57600080fd5b60006127d8858286016126aa565b92505060206127e9858286016126aa565b9150509250929050565b60008060006060848603121561280857600080fd5b6000612816868287016126aa565b9350506020612827868287016126aa565b92505060406128388682870161273d565b9150509250925092565b6000806000806080858703121561285857600080fd5b6000612866878288016126aa565b9450506020612877878288016126aa565b93505060406128888782880161273d565b925050606085013567ffffffffffffffff8111156128a557600080fd5b6128b187828801612713565b91505092959194509250565b600080604083850312156128d057600080fd5b60006128de858286016126aa565b92505060206128ef858286016126d4565b9150509250929050565b6000806040838503121561290c57600080fd5b600061291a858286016126aa565b925050602061292b8582860161273d565b9150509250929050565b6000806040838503121561294857600080fd5b6000612956858286016126d4565b92505060206129678582860161273d565b9150509250929050565b60006020828403121561298357600080fd5b6000612991848285016126e9565b91505092915050565b6000602082840312156129ac57600080fd5b60006129ba848285016126fe565b91505092915050565b6000602082840312156129d557600080fd5b60006129e38482850161273d565b91505092915050565b600080604083850312156129ff57600080fd5b6000612a0d8582860161273d565b9250506020612a1e858286016126aa565b9150509250929050565b612a3181613666565b82525050565b612a408161368a565b82525050565b6000612a518261350e565b612a5b8185613524565b9350612a6b818560208601613720565b612a74816138ea565b840191505092915050565b612a88816136ff565b82525050565b6000612a9982613519565b612aa38185613535565b9350612ab3818560208601613720565b612abc816138ea565b840191505092915050565b6000612ad282613519565b612adc8185613546565b9350612aec818560208601613720565b80840191505092915050565b6000612b05603283613535565b91507f4552433732313a207472616e7366657220746f206e6f6e20455243373231526560008301527f63656976657220696d706c656d656e74657200000000000000000000000000006020830152604082019050919050565b6000612b6b601c83613535565b91507f4552433732313a20746f6b656e20616c7265616479206d696e746564000000006000830152602082019050919050565b6000612bab601583613535565b91507f7075626c6973686564206e6f74207965742073657400000000000000000000006000830152602082019050919050565b6000612beb601b83613535565b91507f5075626c69736865642052696768743a207265737472696374656400000000006000830152602082019050919050565b6000612c2b602483613535565b91507f4552433732313a207472616e7366657220746f20746865207a65726f2061646460008301527f72657373000000000000000000000000000000000000000000000000000000006020830152604082019050919050565b6000612c91601983613535565b91507f4552433732313a20617070726f766520746f2063616c6c6572000000000000006000830152602082019050919050565b6000612cd1602c83613535565b91507f4552433732313a206f70657261746f7220717565727920666f72206e6f6e657860008301527f697374656e7420746f6b656e00000000000000000000000000000000000000006020830152604082019050919050565b6000612d37603883613535565b91507f4552433732313a20617070726f76652063616c6c6572206973206e6f74206f7760008301527f6e6572206e6f7220617070726f76656420666f7220616c6c00000000000000006020830152604082019050919050565b6000612d9d602a83613535565b91507f4552433732313a2062616c616e636520717565727920666f7220746865207a6560008301527f726f2061646472657373000000000000000000000000000000000000000000006020830152604082019050919050565b6000612e03602983613535565b91507f4552433732313a206f776e657220717565727920666f72206e6f6e657869737460008301527f656e7420746f6b656e00000000000000000000000000000000000000000000006020830152604082019050919050565b6000612e69602083613535565b91507f4552433732313a206d696e7420746f20746865207a65726f20616464726573736000830152602082019050919050565b6000612ea9602c83613535565b91507f4552433732313a20617070726f76656420717565727920666f72206e6f6e657860008301527f697374656e7420746f6b656e00000000000000000000000000000000000000006020830152604082019050919050565b6000612f0f602983613535565b91507f4552433732313a207472616e73666572206f6620746f6b656e2074686174206960008301527f73206e6f74206f776e00000000000000000000000000000000000000000000006020830152604082019050919050565b6000612f75602f83613535565b91507f4552433732314d657461646174613a2055524920717565727920666f72206e6f60008301527f6e6578697374656e7420746f6b656e00000000000000000000000000000000006020830152604082019050919050565b6000612fdb602183613535565b91507f4552433732313a20617070726f76616c20746f2063757272656e74206f776e6560008301527f72000000000000000000000000000000000000000000000000000000000000006020830152604082019050919050565b6000613041603183613535565b91507f4552433732313a207472616e736665722063616c6c6572206973206e6f74206f60008301527f776e6572206e6f7220617070726f7665640000000000000000000000000000006020830152604082019050919050565b60006130a7600c83613535565b91507f57726f6e6720417574686f7200000000000000000000000000000000000000006000830152602082019050919050565b60006130e7600f83613535565b91507f57726f6e67205075626c697368657200000000000000000000000000000000006000830152602082019050919050565b613123816136f5565b82525050565b60006131358285612ac7565b91506131418284612ac7565b91508190509392505050565b60006020820190506131626000830184612a28565b92915050565b600060808201905061317d6000830187612a28565b61318a6020830186612a28565b613197604083018561311a565b81810360608301526131a98184612a46565b905095945050505050565b60006020820190506131c96000830184612a37565b92915050565b600060208201905081810360008301526131e98184612a8e565b905092915050565b6000602082019050818103600083015261320a81612af8565b9050919050565b6000602082019050818103600083015261322a81612b5e565b9050919050565b6000602082019050818103600083015261324a81612b9e565b9050919050565b6000602082019050818103600083015261326a81612bde565b9050919050565b6000602082019050818103600083015261328a81612c1e565b9050919050565b600060208201905081810360008301526132aa81612c84565b9050919050565b600060208201905081810360008301526132ca81612cc4565b9050919050565b600060208201905081810360008301526132ea81612d2a565b9050919050565b6000602082019050818103600083015261330a81612d90565b9050919050565b6000602082019050818103600083015261332a81612df6565b9050919050565b6000602082019050818103600083015261334a81612e5c565b9050919050565b6000602082019050818103600083015261336a81612e9c565b9050919050565b6000602082019050818103600083015261338a81612f02565b9050919050565b600060208201905081810360008301526133aa81612f68565b9050919050565b600060208201905081810360008301526133ca81612fce565b9050919050565b600060208201905081810360008301526133ea81613034565b9050919050565b6000602082019050818103600083015261340a8161309a565b9050919050565b6000602082019050818103600083015261342a816130da565b9050919050565b6000602082019050613446600083018461311a565b92915050565b600060c082019050613461600083018961311a565b61346e602083018861311a565b61347b6040830187612a28565b6134886060830186612a28565b6134956080830185612a28565b6134a260a0830184612a7f565b979650505050505050565b6000604051905081810181811067ffffffffffffffff821117156134d4576134d36138bb565b5b8060405250919050565b600067ffffffffffffffff8211156134f9576134f86138bb565b5b601f19601f8301169050602081019050919050565b600081519050919050565b600081519050919050565b600082825260208201905092915050565b600082825260208201905092915050565b600081905092915050565b600061355c826136f5565b9150613567836136f5565b9250827fffffffffffffffffffffffffffffffffffffffffffffffffffffffffffffffff0382111561359c5761359b6137ff565b5b828201905092915050565b60006135b2826136f5565b91506135bd836136f5565b9250826135cd576135cc61382e565b5b828204905092915050565b60006135e3826136f5565b91506135ee836136f5565b9250817fffffffffffffffffffffffffffffffffffffffffffffffffffffffffffffffff0483118215151615613627576136266137ff565b5b828202905092915050565b600061363d826136f5565b9150613648836136f5565b92508282101561365b5761365a6137ff565b5b828203905092915050565b6000613671826136d5565b9050919050565b6000613683826136d5565b9050919050565b60008115159050919050565b60007fffffffff0000000000000000000000000000000000000000000000000000000082169050919050565b60008190506136d0826138fb565b919050565b600073ffffffffffffffffffffffffffffffffffffffff82169050919050565b6000819050919050565b600061370a826136c2565b9050919050565b82818337600083830152505050565b60005b8381101561373e578082015181840152602081019050613723565b8381111561374d576000848401525b50505050565b6000600282049050600182168061376b57607f821691505b6020821081141561377f5761377e61388c565b5b50919050565b6000613790826136f5565b91507fffffffffffffffffffffffffffffffffffffffffffffffffffffffffffffffff8214156137c3576137c26137ff565b5b600182019050919050565b60006137d9826136f5565b91506137e4836136f5565b9250826137f4576137f361382e565b5b828206905092915050565b7f4e487b7100000000000000000000000000000000000000000000000000000000600052601160045260246000fd5b7f4e487b7100000000000000000000000000000000000000000000000000000000600052601260045260246000fd5b7f4e487b7100000000000000000000000000000000000000000000000000000000600052602160045260246000fd5b7f4e487b7100000000000000000000000000000000000000000000000000000000600052602260045260246000fd5b7f4e487b7100000000000000000000000000000000000000000000000000000000600052604160045260246000fd5b6000601f19601f8301169050919050565b6002811061390c5761390b61385d565b5b50565b61391881613666565b811461392357600080fd5b50565b61392f81613678565b811461393a57600080fd5b50565b6139468161368a565b811461395157600080fd5b50565b61395d81613696565b811461396857600080fd5b50565b613974816136f5565b811461397f57600080fd5b5056fea264697066735822122005c79983e686301081854533c7f762ee4683069b25cafec71e65761b0f13e4eb64736f6c63430008000033a26469706673582212201a5c7608548e7ea0a18792513035ff515207f0e3ddd604723f03c98d2d34568064736f6c63430008000033",
  "linkReferences": {},
  "deployedLinkReferences": {}
}